{
  "contractName": "Adoption",
  "abi": [
    {
      "constant": true,
      "inputs": [
        {
          "name": "",
          "type": "uint256"
        }
      ],
      "name": "adopters",
      "outputs": [
        {
          "name": "",
          "type": "address"
        }
      ],
      "payable": false,
      "stateMutability": "view",
      "type": "function"
    },
    {
      "constant": false,
      "inputs": [
        {
          "name": "petId",
          "type": "uint256"
        }
      ],
      "name": "adopt",
      "outputs": [
        {
          "name": "",
          "type": "uint256"
        }
      ],
      "payable": false,
      "stateMutability": "nonpayable",
      "type": "function"
    },
    {
      "constant": true,
      "inputs": [],
      "name": "getAopters",
      "outputs": [
        {
          "name": "",
          "type": "address[16]"
        }
      ],
      "payable": false,
      "stateMutability": "view",
      "type": "function"
    }
  ],
  "bytecode": "0x6060604052341561000f57600080fd5b61024c8061001e6000396000f3006060604052600436106100565763ffffffff7c010000000000000000000000000000000000000000000000000000000060003504166343ae80d3811461005b5780638588b2c51461009a578063f8cd6a41146100c2575b600080fd5b341561006657600080fd5b61007160043561010e565b60405173ffffffffffffffffffffffffffffffffffffffff909116815260200160405180910390f35b34156100a557600080fd5b6100b0600435610138565b60405190815260200160405180910390f35b34156100cd57600080fd5b6100d56101a1565b604051808261020080838360005b838110156100fb5780820151838201526020016100e3565b5050505090500191505060405180910390f35b6000816010811061011b57fe5b015473ffffffffffffffffffffffffffffffffffffffff16905081565b600080821015801561014b5750600f8211155b151561015657600080fd5b336000836010811061016457fe5b01805473ffffffffffffffffffffffffffffffffffffffff191673ffffffffffffffffffffffffffffffffffffffff929092169190911790555090565b6101a96101f7565b600060106102006040519081016040529190610200830182845b815473ffffffffffffffffffffffffffffffffffffffff1681526001909101906020018083116101c3575050505050905090565b6102006040519081016040526010815b60008152600019909101906020018161020757905050905600a165627a7a72305820f2204b519587cc2ffa861d0bc97ab6bd5f2d27b4a1fa9b24143c2838a8a017680029",
  "source": "pragma solidity ^0.4.18;\n\ncontract Adoption {\n    address[16] public adopters;\n    \n    function adopt(uint petId) public returns (uint) {\n        require(petId >= 0 && petId <= 15);\n        adopters[petId] = msg.sender;\n        return petId;\n    }\n\n    function getAopters() public view returns (address[16]) {\n        return adopters;\n    }\n}",
  "sourcePath": "/home/qingyangkong/Environment/AuctionMartDapp/contracts/Adoption.sol",
  "compiler": {
    "name": "solc",
    "version": "0.4.18+commit.9cf6e910.Emscripten.clang"
  },
  "schemaVersion": "1.0.1",
  "updatedAt": "2018-02-07T05:07:36.298Z"
}