{
  "contractName": "EventRegistration",
  "abi": [
    {
      "constant": true,
      "inputs": [],
      "name": "numTicketsSold",
      "outputs": [
        {
          "name": "",
          "type": "uint256"
        }
      ],
      "payable": false,
      "stateMutability": "view",
      "type": "function"
    },
    {
      "constant": true,
      "inputs": [],
      "name": "canceled",
      "outputs": [
        {
          "name": "",
          "type": "bool"
        }
      ],
      "payable": false,
      "stateMutability": "view",
      "type": "function"
    },
    {
      "constant": true,
      "inputs": [],
      "name": "owner",
      "outputs": [
        {
          "name": "",
          "type": "address"
        }
      ],
      "payable": false,
      "stateMutability": "view",
      "type": "function"
    },
    {
      "constant": true,
      "inputs": [],
      "name": "price",
      "outputs": [
        {
          "name": "",
          "type": "uint256"
        }
      ],
      "payable": false,
      "stateMutability": "view",
      "type": "function"
    },
    {
      "constant": false,
      "inputs": [
        {
          "name": "email",
          "type": "string"
        },
        {
          "name": "numTicketsToBuy",
          "type": "uint256"
        }
      ],
      "name": "buyTicket",
      "outputs": [],
      "payable": true,
      "stateMutability": "payable",
      "type": "function"
    },
    {
      "constant": true,
      "inputs": [],
      "name": "quota",
      "outputs": [
        {
          "name": "",
          "type": "uint256"
        }
      ],
      "payable": false,
      "stateMutability": "view",
      "type": "function"
    },
    {
      "constant": true,
      "inputs": [],
      "name": "numRegistrants",
      "outputs": [
        {
          "name": "",
          "type": "uint256"
        }
      ],
      "payable": false,
      "stateMutability": "view",
      "type": "function"
    },
    {
      "inputs": [
        {
          "name": "_quota",
          "type": "uint256"
        },
        {
          "name": "_price",
          "type": "uint256"
        }
      ],
      "payable": false,
      "stateMutability": "nonpayable",
      "type": "constructor"
    },
    {
      "anonymous": false,
      "inputs": [
        {
          "indexed": false,
          "name": "_from",
          "type": "address"
        },
        {
          "indexed": false,
          "name": "amount",
          "type": "uint256"
        }
      ],
      "name": "Deposit",
      "type": "event"
    },
    {
      "anonymous": false,
      "inputs": [
        {
          "indexed": false,
          "name": "_to",
          "type": "address"
        },
        {
          "indexed": false,
          "name": "amount",
          "type": "uint256"
        }
      ],
      "name": "Refund",
      "type": "event"
    }
  ],
  "bytecode": "0x6060604052341561000f57600080fd5b604051604080610488833981016040528080519190602001805160008054600160a060020a033316600160a060020a03199091161781556001556002939093555050600355610425806100636000396000f3006060604052600436106100825763ffffffff7c010000000000000000000000000000000000000000000000000000000060003504166333fceb6d81146100875780633f9942ff146100ac5780638da5cb5b146100d3578063a035b1fe14610102578063a28f161c14610115578063cebe09c91461015f578063ec3a6f7314610172575b600080fd5b341561009257600080fd5b61009a610185565b60405190815260200160405180910390f35b34156100b757600080fd5b6100bf61018b565b604051901515815260200160405180910390f35b34156100de57600080fd5b6100e6610194565b604051600160a060020a03909116815260200160405180910390f35b341561010d57600080fd5b61009a6101a3565b61015d60046024813581810190830135806020601f8201819004810201604051908101604052818152929190602084018383808284375094965050933593506101a992505050565b005b341561016a57600080fd5b61009a610352565b341561017d57600080fd5b61009a610358565b60015481565b60055460ff1681565b600054600160a060020a031681565b60035481565b60008060006002546001541015156101c057600080fd5b6003548402925034839010156101d557600080fd5b6001805485019055600160a060020a0333166000908152600660205260408120549092501561023b57600160a060020a033316600090815260066020908152604080832054808452600790925290912080548501815560010180548601905591506102c9565b60048054600190810191829055600160a060020a03331660009081526006602090815260408083208590558483526007909152902085815590810186905590925060020185805161029092916020019061035e565b506000828152600760205260409020600301805473ffffffffffffffffffffffffffffffffffffffff191633600160a060020a03161790555b82341115610307575034829003600160a060020a03331681156108fc0282604051600060405180830381858888f19350505050151561030757600080fd5b7fe1fffcc4923d04b559f4d29a8bfc6cda04eb5b0d3c460751c2402c5c5cc9109c3334604051600160a060020a03909216825260208201526040908101905180910390a15050505050565b60025481565b60045481565b828054600181600116156101000203166002900490600052602060002090601f016020900481019282601f1061039f57805160ff19168380011785556103cc565b828001600101855582156103cc579182015b828111156103cc5782518255916020019190600101906103b1565b506103d89291506103dc565b5090565b6103f691905b808211156103d857600081556001016103e2565b905600a165627a7a723058202550dcda1e04898f2dcd7ec1e6786977a53086a7570dd4f67d125f88ca123a770029",
  "source": "pragma solidity ^0.4.18;\n\ncontract EventRegistration {\n    struct Registrant {\n        uint amount;\n        uint numTickets;\n        string email;\n        address registrantAddr;\n    }\n\n    address public owner;\n    uint public numTicketsSold;\n    uint public quota;\n    uint public price;\n    uint public numRegistrants;\n    bool public canceled;\n    \n    mapping(address => uint) registrantIndex;\n    mapping(uint => Registrant) registrantDetails;\n\n    event Deposit(address _from, uint amount);\n    event Refund(address _to, uint amount);\n\n    modifier onlyOwner() {\n        require(msg.sender == owner);\n        _;\n    }\n\n    modifier soldOut() {\n        require(numTicketsSold < quota);\n        _;\n    }\n\n    function EventRegistration (uint _quota, uint _price) public {\n        owner = msg.sender;\n        numTicketsSold = 0;\n        quota = _quota;\n        price = _price;\n    }\n\n    function buyTicket(string email, uint numTicketsToBuy) soldOut public payable {\n        uint totalAmount = price * numTicketsToBuy;\n        require(msg.value >= totalAmount);\n        numTicketsSold += numTicketsToBuy;\n\n        uint index = 0;\n        if (registrantIndex[msg.sender] != 0) {\n            index = registrantIndex[msg.sender];\n            registrantDetails[index].amount += totalAmount;\n            registrantDetails[index].numTickets += numTicketsToBuy;\n        } else {\n            index = ++numRegistrants;\n            registrantIndex[msg.sender] = index;\n            registrantDetails[index].amount = totalAmount;\n            registrantDetails[index].numTickets = numTicketsToBuy;\n            registrantDetails[index].email = email;\n            registrantDetails[index].registrantAddr = msg.sender;\n        }\n\n        if (msg.value > totalAmount) {\n            uint refundAmount = msg.value - totalAmount;\n            require(msg.sender.send(refundAmount));\n        }\n        Deposit(msg.sender, msg.value);\n    }\n}",
  "sourcePath": "/home/qingyangkong/Environment/AuctionMartDapp/contracts/EventRegistration.sol",
  "compiler": {
    "name": "solc",
    "version": "0.4.18+commit.9cf6e910.Emscripten.clang"
  },
  "schemaVersion": "1.0.1",
  "updatedAt": "2018-02-07T04:51:38.629Z"
}